{
  "contractName": "LetsMeet",
  "abi": [
    {
      "constant": true,
      "inputs": [
        {
          "name": "",
          "type": "uint256"
        }
      ],
      "name": "proposals",
      "outputs": [
        {
          "name": "id",
          "type": "uint256"
        },
        {
          "name": "owner",
          "type": "address"
        },
        {
          "name": "what",
          "type": "string"
        },
        {
          "name": "when",
          "type": "string"
        },
        {
          "name": "yayVotes",
          "type": "uint8"
        },
        {
          "name": "nayVotes",
          "type": "uint8"
        }
      ],
      "payable": false,
      "stateMutability": "view",
      "type": "function"
    },
    {
      "constant": true,
      "inputs": [
        {
          "name": "",
          "type": "address"
        },
        {
          "name": "",
          "type": "uint256"
        }
      ],
      "name": "byOwner",
      "outputs": [
        {
          "name": "",
          "type": "uint256"
        }
      ],
      "payable": false,
      "stateMutability": "view",
      "type": "function"
    },
    {
      "constant": true,
      "inputs": [],
      "name": "lastProposal",
      "outputs": [
        {
          "name": "id",
          "type": "uint256"
        },
        {
          "name": "owner",
          "type": "address"
        },
        {
          "name": "what",
          "type": "string"
        },
        {
          "name": "when",
          "type": "string"
        },
        {
          "name": "yayVotes",
          "type": "uint8"
        },
        {
          "name": "nayVotes",
          "type": "uint8"
        }
      ],
      "payable": false,
      "stateMutability": "view",
      "type": "function"
    },
    {
      "anonymous": false,
      "inputs": [
        {
          "indexed": false,
          "name": "_message",
          "type": "string"
        }
      ],
      "name": "LetsMeetEvent",
      "type": "event"
    },
    {
      "constant": true,
      "inputs": [],
      "name": "getProposalCount",
      "outputs": [
        {
          "name": "",
          "type": "uint256"
        }
      ],
      "payable": false,
      "stateMutability": "view",
      "type": "function"
    },
    {
      "constant": false,
      "inputs": [
        {
          "name": "_what",
          "type": "string"
        },
        {
          "name": "_when",
          "type": "string"
        }
      ],
      "name": "newProposal",
      "outputs": [
        {
          "name": "proposalId",
          "type": "uint256"
        }
      ],
      "payable": false,
      "stateMutability": "nonpayable",
      "type": "function"
    },
    {
      "constant": false,
      "inputs": [
        {
          "name": "proposalId",
          "type": "uint256"
        },
        {
          "name": "_what",
          "type": "string"
        },
        {
          "name": "_when",
          "type": "string"
        }
      ],
      "name": "counterProposal",
      "outputs": [
        {
          "name": "counterId",
          "type": "uint256"
        }
      ],
      "payable": false,
      "stateMutability": "nonpayable",
      "type": "function"
    },
    {
      "constant": false,
      "inputs": [
        {
          "name": "proposalId",
          "type": "uint256"
        }
      ],
      "name": "voteYes",
      "outputs": [],
      "payable": false,
      "stateMutability": "nonpayable",
      "type": "function"
    },
    {
      "constant": false,
      "inputs": [
        {
          "name": "proposalId",
          "type": "uint256"
        }
      ],
      "name": "voteNo",
      "outputs": [],
      "payable": false,
      "stateMutability": "nonpayable",
      "type": "function"
    },
    {
      "constant": false,
      "inputs": [
        {
          "name": "proposalId",
          "type": "uint256"
        }
      ],
      "name": "getScore",
      "outputs": [
        {
          "name": "score",
          "type": "uint256"
        }
      ],
      "payable": false,
      "stateMutability": "nonpayable",
      "type": "function"
    },
    {
      "constant": false,
      "inputs": [
        {
          "name": "proposalId",
          "type": "uint256"
        }
      ],
      "name": "getNumCounters",
      "outputs": [
        {
          "name": "numCounters",
          "type": "uint256"
        }
      ],
      "payable": false,
      "stateMutability": "nonpayable",
      "type": "function"
    },
    {
      "constant": false,
      "inputs": [
        {
          "name": "proposalId",
          "type": "uint256"
        }
      ],
      "name": "bestProposal",
      "outputs": [
        {
          "name": "bestProposalId",
          "type": "uint256"
        },
        {
          "name": "bestScore",
          "type": "uint256"
        }
      ],
      "payable": false,
      "stateMutability": "nonpayable",
      "type": "function"
    }
  ],
  "bytecode": "0x608060405234801561001057600080fd5b506111f3806100206000396000f3006080604052600436106100af576000357c0100000000000000000000000000000000000000000000000000000000900463ffffffff168063013cf08b146100b45780630e1af57b1461021a5780631a6f7be51461025b5780636a1cf721146102885780636d1875e0146102b557806383e764a714610382578063c08cc02d146103ca578063c82fcef0146103f5578063d6740cdb14610456578063f459e64d146105a6578063f5cbc8e4146105e7575b600080fd5b3480156100c057600080fd5b506100df600480360381019080803590602001909291905050506106aa565b604051808781526020018673ffffffffffffffffffffffffffffffffffffffff1673ffffffffffffffffffffffffffffffffffffffff16815260200180602001806020018560ff1660ff1681526020018460ff1660ff168152602001838103835287818151815260200191508051906020019080838360005b83811015610173578082015181840152602081019050610158565b50505050905090810190601f1680156101a05780820380516001836020036101000a031916815260200191505b50838103825286818151815260200191508051906020019080838360005b838110156101d95780820151818401526020810190506101be565b50505050905090810190601f1680156102065780820380516001836020036101000a031916815260200191505b509850505050505050505060405180910390f35b34801561022657600080fd5b506102456004803603810190808035906020019092919050505061085f565b6040518082815260200191505060405180910390f35b34801561026757600080fd5b50610286600480360381019080803590602001909291905050506108bd565b005b34801561029457600080fd5b506102b36004803603810190808035906020019092919050505061090f565b005b3480156102c157600080fd5b5061036c60048036038101908080359060200190929190803590602001908201803590602001908080601f0160208091040260200160405190810160405280939291908181526020018383808284378201915050505050509192919290803590602001908201803590602001908080601f0160208091040260200160405190810160405280939291908181526020018383808284378201915050505050509192919290505050610961565b6040518082815260200191505060405180910390f35b34801561038e57600080fd5b506103ad600480360381019080803590602001909291905050506109cb565b604051808381526020018281526020019250505060405180910390f35b3480156103d657600080fd5b506103df610abf565b6040518082815260200191505060405180910390f35b34801561040157600080fd5b50610440600480360381019080803573ffffffffffffffffffffffffffffffffffffffff16906020019092919080359060200190929190505050610b09565b6040518082815260200191505060405180910390f35b34801561046257600080fd5b5061046b610b39565b604051808781526020018673ffffffffffffffffffffffffffffffffffffffff1673ffffffffffffffffffffffffffffffffffffffff16815260200180602001806020018560ff1660ff1681526020018460ff1660ff168152602001838103835287818151815260200191508051906020019080838360005b838110156104ff5780820151818401526020810190506104e4565b50505050905090810190601f16801561052c5780820380516001836020036101000a031916815260200191505b50838103825286818151815260200191508051906020019080838360005b8381101561056557808201518184015260208101905061054a565b50505050905090810190601f1680156105925780820380516001836020036101000a031916815260200191505b509850505050505050505060405180910390f35b3480156105b257600080fd5b506105d160048036038101908080359060200190929190505050610ccd565b6040518082815260200191505060405180910390f35b3480156105f357600080fd5b50610694600480360381019080803590602001908201803590602001908080601f0160208091040260200160405190810160405280939291908181526020018383808284378201915050505050509192919290803590602001908201803590602001908080601f0160208091040260200160405190810160405280939291908181526020018383808284378201915050505050509192919290505050610cfc565b6040518082815260200191505060405180910390f35b6000818154811015156106b957fe5b90600052602060002090600602016000915090508060000154908060010160009054906101000a900473ffffffffffffffffffffffffffffffffffffffff1690806002018054600181600116156101000203166002900480601f0160208091040260200160405190810160405280929190818152602001828054600181600116156101000203166002900480156107915780601f1061076657610100808354040283529160200191610791565b820191906000526020600020905b81548152906001019060200180831161077457829003601f168201915b505050505090806003018054600181600116156101000203166002900480601f01602080910402602001604051908101604052809291908181526020018280546001816001161561010002031660029004801561082f5780601f106108045761010080835404028352916020019161082f565b820191906000526020600020905b81548152906001019060200180831161081257829003601f168201915b5050505050908060050160009054906101000a900460ff16908060050160019054906101000a900460ff16905086565b60008060006001840381548110151561087457fe5b9060005260206000209060060201905080600401805490508160050160019054906101000a900460ff168260050160009054906101000a900460ff160360ff1603915050919050565b60016000600183038154811015156108d157fe5b906000526020600020906006020160050160018282829054906101000a900460ff160192506101000a81548160ff021916908360ff16021790555050565b600160006001830381548110151561092357fe5b906000526020600020906006020160050160008282829054906101000a900460ff160192506101000a81548160ff021916908360ff16021790555050565b60008060006001860381548110151561097657fe5b906000526020600020906006020190506109908484610cfc565b915080600401829080600181540180825580915050906001820390600052602060002001600090919290919091505550819150509392505050565b60008060008060008060008060008060018b038154811015156109ea57fe5b9060005260206000209060060201965086600401805490509550610a0d8a61085f565b94506000861415610a3e576000851115610a2c57898598509850610ab3565b60008081915080905098509850610ab3565b849750899850600090505b85811015610a9c578660040181815481101515610a6257fe5b90600052602060002001549350610a78846109cb565b809350819450505087821115610a8f578298508197505b8080600101915050610a49565b8785101515610aac578998508497505b8888985098505b50505050505050915091565b6000600760003373ffffffffffffffffffffffffffffffffffffffff1673ffffffffffffffffffffffffffffffffffffffff16815260200190815260200160002080549050905090565b600760205281600052604060002081815481101515610b2457fe5b90600052602060002001600091509150505481565b60018060000154908060010160009054906101000a900473ffffffffffffffffffffffffffffffffffffffff1690806002018054600181600116156101000203166002900480601f016020809104026020016040519081016040528092919081815260200182805460018160011615610100020316600290048015610bff5780601f10610bd457610100808354040283529160200191610bff565b820191906000526020600020905b815481529060010190602001808311610be257829003601f168201915b505050505090806003018054600181600116156101000203166002900480601f016020809104026020016040519081016040528092919081815260200182805460018160011615610100020316600290048015610c9d5780601f10610c7257610100808354040283529160200191610c9d565b820191906000526020600020905b815481529060010190602001808311610c8057829003601f168201915b5050505050908060050160009054906101000a900460ff16908060050160019054906101000a900460ff16905086565b60008060018303815481101515610ce057fe5b9060005260206000209060060201600401805490509050919050565b6000610d0661107b565b600160008054905001915060e0604051908101604052808381526020013373ffffffffffffffffffffffffffffffffffffffff1681526020018581526020018481526020016000604051908082528060200260200182016040528015610d7b5781602001602082028038833980820191505090505b508152602001600160ff168152602001600060ff168152509050600081908060018154018082558091505090600182039060005260206000209060060201600090919290919091506000820151816000015560208201518160010160006101000a81548173ffffffffffffffffffffffffffffffffffffffff021916908373ffffffffffffffffffffffffffffffffffffffff1602179055506040820151816002019080519060200190610e309291906110d5565b506060820151816003019080519060200190610e4d9291906110d5565b506080820151816004019080519060200190610e6a929190611155565b5060a08201518160050160006101000a81548160ff021916908360ff16021790555060c08201518160050160016101000a81548160ff021916908360ff160217905550505050600760003373ffffffffffffffffffffffffffffffffffffffff1673ffffffffffffffffffffffffffffffffffffffff1681526020019081526020016000208290806001815401808255809150509060018203906000526020600020016000909192909190915055508060016000820151816000015560208201518160010160006101000a81548173ffffffffffffffffffffffffffffffffffffffff021916908373ffffffffffffffffffffffffffffffffffffffff1602179055506040820151816002019080519060200190610f899291906110d5565b506060820151816003019080519060200190610fa69291906110d5565b506080820151816004019080519060200190610fc3929190611155565b5060a08201518160050160006101000a81548160ff021916908360ff16021790555060c08201518160050160016101000a81548160ff021916908360ff1602179055509050507f2dbf70b59c145c1a5144863d9f0432b5034085b1c771aeb372e7ac5bd599fda56040518080602001828103825260118152602001807f70726f706f73616c20637265617465642100000000000000000000000000000081525060200191505060405180910390a18191505092915050565b60e06040519081016040528060008152602001600073ffffffffffffffffffffffffffffffffffffffff168152602001606081526020016060815260200160608152602001600060ff168152602001600060ff1681525090565b828054600181600116156101000203166002900490600052602060002090601f016020900481019282601f1061111657805160ff1916838001178555611144565b82800160010185558215611144579182015b82811115611143578251825591602001919060010190611128565b5b50905061115191906111a2565b5090565b828054828255906000526020600020908101928215611191579160200282015b82811115611190578251825591602001919060010190611175565b5b50905061119e91906111a2565b5090565b6111c491905b808211156111c05760008160009055506001016111a8565b5090565b905600a165627a7a72305820dc70ab6ce45acde24a680123b843e7c375e0fe3464c3b0344953b2003507fb220029",
  "source": "pragma solidity >=0.4.21 <0.6.0;\n\ncontract LetsMeet {\n    event LetsMeetEvent(\n      string _message\n    );\n\n    struct LetsMeetProposal {\n      uint256 id;\n      address owner;\n      string what;\n      string when;\n      uint256[] counterIds;\n\n      uint8 yayVotes;\n      uint8 nayVotes;\n    }\n\n    LetsMeetProposal[] public proposals;\n    LetsMeetProposal public lastProposal;\n    mapping(address => uint256[]) public byOwner;\n\n    function getProposalCount() public view returns (uint) {\n        return byOwner[msg.sender].length;\n    }\n\n    function newProposal(string memory _what, string memory _when) public returns (uint256 proposalId) {\n        proposalId = proposals.length + 1;\n\n        LetsMeetProposal memory proposal = LetsMeetProposal({\n            id: proposalId,\n            yayVotes: 1, nayVotes: 0,\n            owner: msg.sender,\n            what: _what, when: _when,\n            counterIds: new uint256[](0)});\n        proposals.push(proposal);\n        byOwner[msg.sender].push(proposalId);\n\n        lastProposal = proposal;\n\n        emit LetsMeetEvent(\"proposal created!\");\n        return proposalId;\n    }\n\n    function counterProposal(uint256 proposalId, string memory _what, string memory _when) public returns (uint256 counterId) {\n        LetsMeetProposal storage proposal = proposals[proposalId-1];\n        counterId = newProposal(_what, _when);\n        proposal.counterIds.push(counterId);\n\n        return counterId;\n    }\n\n    function voteYes(uint256 proposalId) public {\n        proposals[proposalId-1].yayVotes += 1;\n    }\n\n    function voteNo(uint256 proposalId) public {\n        proposals[proposalId-1].nayVotes += 1;\n    }\n\n    function getScore(uint256 proposalId) public returns (uint score) {\n        LetsMeetProposal storage proposal = proposals[proposalId-1];\n        return proposal.yayVotes - proposal.nayVotes - proposal.counterIds.length;\n    }\n\n    function getNumCounters(uint256 proposalId) public returns (uint256 numCounters) {\n        return proposals[proposalId-1].counterIds.length;\n    }\n\n    /** recursively searches the best proposal rooted at this proposal */\n    function bestProposal(uint256 proposalId) public returns(uint256 bestProposalId, uint bestScore) {\n        LetsMeetProposal storage proposal = proposals[proposalId-1];\n        uint numCounters = proposal.counterIds.length;\n        uint myScore = getScore(proposalId);\n\n        // base case\n        if (numCounters == 0) {\n            if (myScore > 0) {\n                return (proposalId, myScore);\n            } else {\n                return (0, 0);\n            }\n        }\n\n        bestScore = myScore;\n        bestProposalId = proposalId;\n\n        uint256 counterId;\n        uint256 winnerId;\n        uint score;\n\n        for (uint i = 0; i < numCounters; i++) {\n            counterId = proposal.counterIds[i];\n            (winnerId, score) = bestProposal(counterId);\n\n            if (score > bestScore) {\n                bestProposalId = winnerId;\n                bestScore = score;\n            }\n        }\n\n        if (myScore >= bestScore) {\n            bestProposalId = proposalId;\n            bestScore = myScore;\n        }\n\n        return (bestProposalId, bestScore);\n    }\n}\n",
  "sourcePath": "/home/speak2ravi/blockchain_training/decentralizedArt/contracts/LetsMeet.sol",
  "compiler": {
    "name": "solc",
    "version": "0.4.25+commit.59dbf8f1.Emscripten.clang"
  },
  "schemaVersion": "3.0.11",
  "updatedAt": "2019-08-17T02:24:52.066Z",
  "devdoc": {
    "methods": {}
  },
  "userdoc": {
    "methods": {
      "bestProposal(uint256)": {
        "notice": "recursively searches the best proposal rooted at this proposal "
      }
    }
  }
}